:100000000C94F4010C9406020C9406020C94060263
:100010000C9406020C9406020C9406020C94060240
:100020000C9406020C9406020C9406020C949E0793
:100030000C9406020C9406020C9406020C94060220
:100040000C9406020C9406020C9406020C94060210
:100050000C9406020C9406020C9406020C94060200
:100060000C9406020C9406020C9406020C940602F0
:100070000C9406020C9406020C9423030C940602C2
:100080000C9406020C9406020C9406020A0D000061
:10009000000000000000000044534F20303638209C
:1000A000284C452900000000000000004279204A49
:1000B00059452054656368204C74642E200000006C
:1000C0005757572E4A5945544543482E434F4D20C4
:1000D0000000000046573A2030363830352D303198
:1000E00030000000000000008E045B0A5A0CBD09BD
:1000F0002D0A120A64090300000050000400008069
:100100000000000C400C00001769171775200B69E0
:10011000200B692B1769340B75340B32306D73006B
:100120000031306D73000020356D73000020326D9A
:1001300073000020316D7300002E356D7300002EAA
:10014000326D7300002E316D73000000006A187666
:10015000216A216A2C6A3576356A0F4155544F0061
:100160004E4F524D0053494E470020203556002037
:10017000203256002020315600302E355600302EC9
:10018000325600302E31560035306D560032306D0B
:10019000560031306D5600409C204E1027A00FD0E5
:1001A00007E8039001C800484F4C4400202020205D
:1001B00000FFFEFCF8F0E0C0800103070F1F3F7F47
:1001C000FF07020207081C3E1C1C1C3E1C08000006
:1001D000143E7F3E140000000050487F09110000CB
:1001E000000005097F484400001C0A090A1C0E1182
:1001F00011110A1F1111110E0E1111191A1F0204EB
:10020000081F0000000000000000000000005F0068
:10021000000007000700147F147F14242A7F2A128D
:10022000231308646236495522500005030000007C
:100230001C2241000041221C00082A1C2A08080830
:100240003E080800503000000808080808006060F8
:10025000000020100804023E5149453E00427F4004
:100260000042615149462141454B311814127F101B
:1002700027454545393C4A4949300171090503364E
:1002800049494936064949291E00363600000056BC
:1002900036000000081422411414141414412214CE
:1002A00008000201510906324979413E7E111111BF
:1002B0007E7F494949363E414141227F4141221CCE
:1002C0007F494949417F090901013E414151327F3E
:1002D0000808087F00417F41002040413F017F081E
:1002E0001422417F404040407F0204027F7F040887
:1002F000107F3E4141413E7F090909063E4151219F
:100300005E7F09192946464949493101017F0101AA
:100310003F4040403F1F2040201F7F2018207F6328
:100320001408146303047804036151494543000031
:100330007F4141020408102041417F000004020176
:100340000204404040404000010204002054545444
:10035000787F484444383844444420384444487FF3
:100360003854545418087E090102081454543C7F30
:100370000804047800447D40002040443D00007F94
:1003800010284400417F40007C041804787C080455
:10039000047838444444387C14141408081414189D
:1003A0007C7C080404084854545420043F444020F2
:1003B0003C4040207C1C2040201C3C4030403C44C1
:1003C000281028440C5050503C4464544C440008BD
:1003D00036410000007F0000004136080008082A6E
:1003E0001C08081C2A08080011241FBECFEFD0E10A
:1003F000DEBFCDBF18E0A0E0B1E001C01D92AA337E
:10040000B107E1F70E9408020C944A110C94000015
:100410001F930E94B0020E949E020E943C030E9411
:1004200033030E9436030E94CA020E94D5028CE860
:1004300090E060E00E940E0388E990E060E00E9496
:100440000E038CE890E060E00E940E038CEA90E0DE
:1004500060E00E940E038CE890E060E00E940E03D2
:1004600080EC90E060E00E940E038CE890E060E099
:100470000E940E0384ED90E060E00E940E030E9453
:100480001F040E949610B99ABE9AC19818ECC6989B
:100490008AEF90E00E949706C69A8AEF90E00E9449
:1004A00097061150A1F7C19A80E69AEE0E9497062E
:1004B00080E69AEE0E94970680E69AEE0E949706E2
:1004C000C19818ECC6988AEF90E00E949706C69AE9
:1004D0008AEF90E00E9497061150A1F7C19ABE984A
:1004E00078940E945F0B0E9440040E940F0B809141
:1004F000100180688093100104C08091010188235D
:1005000079F48091100187FD11C086FFF6CF8F7BB3
:10051000809310010E94190C80910101882389F3B6
:100520000E944D058091100187FFEFCF8F77809358
:1005300010010E947D0780911001E7CF80E485BF04
:100540008EE080936D0087E080936C0088E080BD32
:100550008AEA80936A001ABE19BE8FEF88BF089599
:100560009FEF9BBB1ABA8DE688BB82E987BB15BAA1
:1005700094BB92BB88E881BB8BEF83B912B881E052
:100580008093620010926100109265008FE1809369
:10059000640008951BB888E18AB986E080939500CD
:1005A000109290008FE189B9089510929B0088E91C
:1005B00080939A0086E080939D00109298008FE1CE
:1005C0008093990008955D9BFECF8CB90895882390
:1005D00019F0813029F008955D9BFECF6CB9089524
:1005E00080919B0085FFFCCF60939C0008955F9BEA
:1005F000FECF8CB108951F93CF93DF93EC01162F9C
:100600006881662339F0812F0E94E7022196688174
:100610006623C9F7DF91CF911F9108951F93CF9360
:10062000DF93EC01162FFC016491662341F0812FCA
:100630000E94E7022196FE0164916623C1F7DF91D3
:10064000CF911F9108951F920F920FB60F92112410
:100650008F9380919C00809301018F910F900FBE2A
:100660000F901F90189580E188B9089584E087B9AC
:1006700016B810928E00089589E683BF12BE80E8F6
:1006800081BF1FBC89E18EBD10927A001DBC1CBCCD
:100690001BBC1ABC19BC18BC1092790010927800CF
:1006A00017BC16BC99E095BD14BC81E083BD809356
:1006B0008B0090938A0010928C0010928900109207
:1006C00088001092870080E6809386001092850053
:1006D0001092840010928300109282001092810088
:1006E0001092800017BE10927D008FEF86BF8FE3BF
:1006F00080937C0008959C01E199FECF3FBB2EBB07
:100700006DBBF894E29AE19A789408959C01E1997E
:10071000FECF3FBB2EBBE09A8DB30895882389F5A9
:10072000979880916500877F80936500442389F1C5
:1007300080916500826080936500809165008E7F66
:10074000809365008091650080618093650065BB42
:1007500081E090E00E949706809165008F7E8093F3
:100760006500809165008E7F8093650080916500B3
:100770008D7F8093650081E090E00E9497068FEF67
:10078000089580916500877F80936500979A442340
:1007900079F68091650081608093650080916500A5
:1007A0008D7F80936500CECF1F93982F6623C9F568
:1007B00080916500816080936500809165008D7FE8
:1007C000809365009923C9F1979A809165008860AC
:1007D000809365008091650080618093650014BA04
:1007E00081E090E00E94970613B381E090E00E94C0
:1007F00097068FEF84BB809165008E7F80936500A4
:10080000809165008D7F80936500809165008F7E6B
:100810008093650081E090E00E949706812F1F91F0
:1008200008958091650082608093650080916500E5
:100830008E7F80936500992339F69798C6CF809173
:1008400065008B7F8093650088EE93E00E94970699
:100850008091650084608093650084E690E00E944A
:10086000970680E06FE340E00E948E038823C9F37F
:1008700080E06FE341E00E948E038823C9F308956E
:10088000109203011092010181E080930201809394
:100890000401089590910201292F30E0220F331FA7
:1008A00028513F4FF9014591549190E0FA01099583
:1008B000089580910301882339F481E08093000139
:1008C00080E00E944A040895813009F008958091E3
:1008D0000201823011F08430C9F781E08093000179
:1008E00080E00E944A04089580910301882331F436
:1008F00081E0809300010E944A040895813009F04C
:10090000089580910201823011F08430C9F781E0AE
:10091000809300010E944A040895089508958091EB
:1009200004010E94080F809102010E94080F80912B
:1009300002018093040189E667E147E127E20E9412
:10094000BA0F089586E0809302010E948F040895F3
:1009500085E0809302010E948F040E947404089530
:1009600084E0809302010E948F04089581E08093C7
:1009700002010E948F04089582E0809302010E9488
:100980008F04089583E0809302010E948F040895EC
:1009900080911001877F809310010E94A4088091AC
:1009A0001001806880931001089580911001886083
:1009B0008093100187B78F7D87BF0E94A408089598
:1009C000809101018630E1F1873048F08A3079F179
:1009D0008B3080F0803411F18035D1F00895833070
:1009E00061F1843070F08430B1F08530B9F70E9445
:1009F000A80408958730A9F0893081F70E94740413
:100A000008958130B9F0823049F70E94BC040895FE
:100A10000E94FC0808950E94B00408950E949D0859
:100A2000089581E0809303010E94D50408950E94F7
:100A3000590408950E94C20408950E94B6040895BE
:100A40000E94A204089580910101893019F18A3031
:100A500038F08034C9F0803589F08A3091F00895FB
:100A60008430A9F0873029F08230C9F70E94BC0495
:100A70000895109203010E94C80408950E94FC0882
:100A800008950E94590408950E949D0808950E94A7
:100A9000B00408950E947404089580910101807F3C
:100AA0008034F1F080910101807F803581F0809168
:100AB0000301882329F40E94E004109201010895A3
:100AC0008130D9F70E942305109201010895809189
:100AD00001018F708093000180E580930101E7CFD1
:100AE000809101018F708093000180E48093010167
:100AF000D9CF861708F4682F862F0895681708F451
:100B0000682F862F08954F925F926F927F928F92F7
:100B10009F92AF92BF92CF92DF92EF92FF920F938C
:100B20001F935B016C012A0120E03AEC4AE95BE388
:100B30000E941411F201208330E040E050E0CA012D
:100B4000B90120E036E345E654EC0E94D6107B0163
:100B50008C01EA0CFB1C0C1D1D1DC801B70120E017
:100B600031EE45EF55E00E941411F201218330E08F
:100B700040E050E0CA01B90120E03FE14AE05AEF0D
:100B80000E94D6105B016C01AE0CBF1CC01ED11EB2
:100B9000C601B50120E836E948E950E00E94141189
:100BA000F201228330E040E050E0CA01B90120E8C0
:100BB00039E647E65FEF0E94D6107B018C01EA0C14
:100BC000FB1C0C1D1D1DC801B70120E432E44FE0E1
:100BD00050E00E941411F201238330E040E050E025
:100BE000CA01B90120EC3DEB40EF5FEF0E94D61047
:100BF0005B016C01AE0CBF1CC01ED11EC601B5014D
:100C000020EA36E841E050E00E941411F20124830A
:100C100030E040E050E0CA01B90120E639E74EEF8C
:100C20005FEF0E94D6107B018C01EA0CFB1C0C1DAF
:100C30001D1DC801B70120E137E240E050E00E94ED
:100C40001411F201258330E040E050E0CA01B901FF
:100C500020EF38ED4FEF5FEF0E94D6105B016C0183
:100C6000AE0CBF1CC01ED11EC601B50128EE33E07C
:100C700040E050E00E941411F201268330E040E091
:100C800050E0CA01B90128E13CEF4FEF5FEF0E944D
:100C9000D6103B014C016A0C7B1C8C1C9D1CC401B2
:100CA000B30124E630E040E050E00E941411F2016C
:100CB000278330E040E050E0CA01B9012CE93FEF62
:100CC0004FEF5FEF0E94D6107B018C01E60CF71C02
:100CD000081D191DC801B7012AE030E040E050E0CE
:100CE0000E941411F201208730E040E050E0CA0178
:100CF000B90126EF3FEF4FEF5FEF0E94D610E60EEF
:100D0000F71E081F191FF201E18612861386C20121
:100D10001F910F91FF90EF90DF90CF90BF90AF9019
:100D20009F908F907F906F905F904F900895DF938A
:100D3000CF9300D0CDB7DEB79A83898389819A811A
:100D4000892B59F00E94C81089819A8101979A8352
:100D5000898389819A81892BA9F70F900F90CF9170
:100D6000DF910895E6E1F1E0119284E0E633F807BF
:100D7000D9F70895CF93DF93582F4423B9F1E62F85
:100D8000F0E0CF018F739070959587959595879535
:100D90009595879524E630E0829FD001839FB00D22
:100DA000929FB00D1124A50FB11DAA5EBE4F6150D8
:100DB000460F6F5F403408F05AC0242F26952695C1
:100DC0002695669566956695261B99F4E770F070F2
:100DD000EF54FE4F8491E42FF0E0E770F070E75499
:100DE000FE4FE491E8238C918E2B8C93DF91CF9171
:100DF0000895213009F43DC0E770F070EF54FE4FC4
:100E000094918C91892B8C93ED01CC59DF4F22303A
:100E100008F1FE01922F92505FEF84E6989F9001B7
:100E2000112428533F4F2A0F3B1F5083EC59FF4F8B
:100E3000E217F307D1F7892F90E0019624E630E01E
:100E4000BC01629FC001639F900D729F900D1124A1
:100E5000C80FD91FE42FF0E0E770F070E754FE4FA1
:100E6000E49188818E2B8883DF91CF9108954FE3A1
:100E7000A4CFE770F070EF54FE4F94918C91892BC2
:100E80008C93AC59BF4FE42FF0E0E770F070E7545B
:100E9000FE4FE4918C918E2B8C93DF91CF9108952E
:100EA00020910E0130910F01C901880F991F820F07
:100EB000931F969587959695879596958795809695
:100EC00081BF089580E09CE090931201809311010E
:100ED0008091100184608093100180E88093360433
:100EE00088B18C7F88B980910D01882311F0419AD7
:100EF000089588B1836088B908950E9462071FBC75
:100F000089E18EBD429880910B01E82FFF27E7FD14
:100F1000F095EE0FFF1FE956FE4F8591949197BD16
:100F200086BD80E0C798C79A8F5F8830D9F786B7AB
:100F3000806286BF87B7806287BF08951F920F9235
:100F40000FB60F9211242F938F939F93EF93FF93DC
:100F5000C198C79889B3E0911101F0911201808383
:100F6000C79A8091100185FD19C0449934C08091C1
:100F70001101909112010196909312018093110139
:100F800080509D4098F4C19AFF91EF919F918F916D
:100F90002F910F900FBE0F901F90189590913604CF
:100FA000992339F1915090933604E1CF80E09CE091
:100FB00090931201809311019091100192FD20C035
:100FC00080910C018823F9F690649093100187B703
:100FD0008F7D87BFD8CF82FDCACF806280931001FA
:100FE000809111019091120190931401809313014B
:100FF000C2CF80648093100187B78F7D87BFC4CF35
:101000009B7F90931001449ABECFCF93DF9380E0F3
:1010100090E0FC01EA50FF4FE491DC01AB5FBE4F72
:10102000EC93019680319105A1F7C0E0D0E0FE017C
:10103000EB5FFE4FCE018D5F9F4F60810E947B036F
:101040002196C031D10599F780E090E06AEF0E94C7
:101050007B0381E090E06FE50E947B0382E090E0FB
:1010600060E00E947B03DF91CF9108950F931F935F
:10107000CF93DF9380E090E00E948603182F81E0F9
:1010800090E00E948603082F82E090E00E94860391
:101090001A3F11F40F3539F00E940508DF91CF9106
:1010A0001F910F9108958823B9F7C0E0D0E0CE01D9
:1010B0008D5F9F4F0E948603FE01EB5FFE4F808392
:1010C0002196C031D10599F7E9CF80910601813091
:1010D00081F18230C1F0882379F48AE669E042E048
:1010E0000E94540E80E769E041E00E94540E86E7BA
:1010F00069E045E00E94540E8AE669E041E12DE096
:101100000E94BA0F08958AE669E043E00E94540EF7
:1011100080E769E044E00E94540E86E769E042E01F
:101120000E94540E8AE669E041E12DE00E94BA0F68
:1011300008958AE669E040E0D3CF80910001809372
:1011400006010E94650808958091100183FD0EC07C
:1011500089E660E04CEA51E025E00E949D0F89E6B7
:1011600060E047E128E00E94BA0F089589E660E058
:1011700047EA51E025E00E949D0F89E660E047E1E3
:1011800028E00E94BA0F0895E3E5F1E084913196DA
:10119000E49140910C0195E04902A0011124455AC7
:1011A0005E4F6E2F25E00E949D0F0895EDE4F1E063
:1011B00084913196E49140910B0196E04902A0019F
:1011C0001124455E5E4F6E2F25E00E949D0F08950D
:1011D0004091050185E04802A001112446595E4F67
:1011E0008AE66FE025E00E949D0F8AE66FE045E108
:1011F00025E10E94BA0F08958091000180930501B6
:101200000E94E80808958091150165E00E94F5109C
:10121000865E6EE344E10E944D0D8091090190913C
:101220000A0165E070E00E940111862F865E6EE380
:1012300044E10E942E0D80910901809315010895CB
:101240000F931F930EE980913904602F681B81E092
:1012500041E00E94030E2091070130910801809126
:101260000E0190910F01280F391F2F3931054CF5D0
:101270002236310514F512E66CE381E040E00E946D
:10128000030E87E660E042E02DE30E94BA0F109360
:10129000390420910E0130910F01C901880F991F67
:1012A000820F931F96958795969587959695879526
:1012B000809681BF1F910F910895122F602F621B9E
:1012C000DCCF1EE960E0D9CF60910E0170910F0173
:1012D0008130E1F080910001681B710977FD21C028
:1012E00070930F0160930E018CE090E00E947B03ED
:1012F00060910E0170910F01672F770F770B8DE0D2
:1013000090E00E947B030E942009089580910001D3
:10131000680F711D81E06130780714F360E071E0BF
:10132000DFCF60E070E0DCCF0F931F930EE9809178
:101330003804602F681B80E041E00E94030E10918A
:10134000070110581F39B0F4123688F412E66CE326
:1013500080E040E00E94030E1093380480E060E0DB
:1013600042E02DE30E94BA0F1F910F910895602F64
:10137000611BEECF1EE960E0EBCF813089F1209157
:1013800000018091070190910801821B91099093BF
:10139000080180930701609107017091080160388E
:1013A00071058CF08FE790E090930801809307011E
:1013B0006FE770E085E090E00E947B030E94940953
:1013C0000E94200908958FEF613878079CF781E823
:1013D0009FEF909308018093070161E87FEFEACFC8
:1013E000209100018091070190910801820F911DC9
:1013F0009093080180930701CECFE5E5F1E0949149
:101400003196649180910D01882331F440EE51E0D2
:10141000892F0E94B10E089547ED51E0892F0E9457
:10142000B10E089560910D0181E0682760930D0170
:101430008BE090E00E947B03809102010E94080FE4
:101440000E94FD09809102010E94080F89E664E371
:101450004BE029E00E94BA0F0895813009F1809194
:101460000C01815080930C0187FD17C08AE090E049
:1014700060910C010E947B03809102010E94080F81
:101480000E94C408809102010E94080F89E66BE265
:1014900047E129E00E94BA0F089510920C01E6CFAF
:1014A00080910C018F5F80930C018330FCF282E00D
:1014B00080930C01DBCF813059F180910B01815079
:1014C00080930B0187FD21C089E090E060910B01C2
:1014D0000E947B03809102010E94080F0E94D6089F
:1014E000809102010E94080F87B78F7D87BF80918E
:1014F000100183FD03C080E88093100189E667E155
:1015000047E129E00E94BA0F089510920B01DCCF49
:1015100080910B018F5F80930B018830ACF287E0E4
:1015200080930B01D1CF9F92AF92BF92CF92DF9267
:10153000EF92FF920F931F93CF93DF9380E068EBBE
:1015400040E00E948E0380E062E440E00E948E034F
:1015500080E068EB41E00E948E0380E060E441E0BF
:101560000E948E03BCE3CB2EB4E0DB2EA6E1AA2EB4
:10157000A1E0BA2E99247601E50110E06991F70106
:1015800081917F01682B81E040E00E948E031F5F04
:101590001E33A1F7FEE3EF2EF12CEA0CFB1CE60153
:1015A000EE9686010C591F4FF70161917F018991D9
:1015B000682B81E041E00E948E03C017D107A1F79C
:1015C00084E690E0A80EB91E9394192D186B80E064
:1015D000612F40E00E948E0380E0612F41E00E9475
:1015E0008E0380E062E440E00E948E0380E060E4CD
:1015F00041E00E948E0398E0991629F0E0E8F0E0BF
:10160000CE0EDF1EB8CFDF91CF911F910F91FF90CB
:10161000EF90DF90CF90BF90AF909F9008950F9381
:101620001F93CF93DF930E94A00C0E946D0DC1E524
:10163000D1E0FE0184912196FE0164910EEC11E04F
:10164000A8010E94B10E2397FE0184912196FE010C
:10165000649145EC51E00E94B10E2796FE01849101
:101660002196FE016491A8010E94B10E8AE16DE30A
:1016700043E00E94A80C8DE46DE343E00E94A80CB7
:101680000E9465080E94E8080E94C4080E94D608CB
:101690000E94FD090E9494090E9420090E940309EA
:1016A0000E94A408809102010E94080F8AE394E03E
:1016B0000E942310DF91CF911F910F910895E6E1D1
:1016C000F1E0119284E0E633F807D9F70E9436087A
:1016D00080E09CE0909312018093110180E49CE0F3
:1016E000909314018093130181E080930201809311
:1016F0000401809107018093380480910E0180934A
:101700003904809109018093150180E880931001CC
:1017100081E060EF0E94E7020895CF92DF92EF929E
:10172000FF920F931F93CF93DF9390911001892F16
:1017300093FD12C08091000C8093000DA1E0BCE0ED
:10174000FD01E050FF4F8D9180832DE0A030B20766
:10175000B9F790911001892F81FD5EC08091090138
:1017600090910A0180509F4FC0911101D0911201B8
:10177000C80FD91F3EE0C030D30710F0C050D14091
:10178000E6E1F1E0119284E0E633F807D9F7C09082
:101790000701D090080110E00EE9E02E24C00EE908
:1017A000112311F400933704802F609137040E94B5
:1017B0007905F82E802F609137040E947E05482F0E
:1017C000009337046E2D681B4F5F4F19812F0E94C5
:1017D000BA0621963EE0C030D30710F0C0E0DDE04D
:1017E0001F5F143671F088819601280F311D2F3943
:1017F0003105ACF62236310514F402E6D1CF022FC2
:10180000CFCF0E94930ADF91CF911F910F91FF904C
:10181000EF90DF90CF90089598609D7F9093100196
:1018200087B78F7D87BF81E0809303010E94A40862
:1018300095CF8091100185FF24C0482F4F7D4093A4
:1018400010012091130130911401C901805890407A
:10185000909312018093110180509C4030F42058E5
:101860003F4F309312012093110180910C0182307F
:10187000B1F00E948D0B809110018068809310015F
:10188000089580E09CE090931201809311010E94E2
:101890008D0B809110018068809310010895426043
:1018A000409310010E948D0B8091100180688093FD
:1018B00010010895813071F12091090130910A01E0
:1018C0008091000190E082179307FCF48091000161
:1018D000281B310930930A012093090187E090E029
:1018E000609109010E947B030E94030988E16DE376
:1018F00044E323E00E94BA0F8091100183FF089512
:101900000E948D0B0E94930A089510920A01109272
:101910000901E4CF209100018091090190910A0111
:10192000820F911D90930A01809309018C399105D2
:10193000ACF28CE990E090930A0180930901CECF3C
:10194000EAE3F4E0119288E0EA33F807D9F7089562
:10195000CF93DF93442371F1E62FF0E0DF01A295EE
:10196000B295B07FBA27A07FBA27A078B370A80F2E
:10197000B11DA65CBB4F6150460F6F5F403408F04D
:1019800054C0242F269526952695669566956695CE
:10199000261B99F4E770F070EF54FE4F8491E42F0A
:1019A000F0E0E770F070E754FE4FE491E8238C918B
:1019B0008E2B8C93DF91CF9108952130C1F1E77088
:1019C000F070EF54FE4F94918C91892B8C93ED0124
:1019D000C058DF4F2230E0F0FE0122505FEF30E0D0
:1019E000C90102969695982F8827979587958A0F13
:1019F0009B1F5083E058FF4FE817F907D1F72F5F7F
:101A00003F4F3695322F222737952795C20FD31F88
:101A1000E42FF0E0E770F070E754FE4FE491888126
:101A20008E2B8883DF91CF9108954FE3AACFE77083
:101A3000F070EF54FE4F94918C91892B8C93A058A9
:101A4000BF4FE42FF0E0E770F070E754FE4FE491F1
:101A50008C918E2B8C93DF91CF9108954423E1F0EC
:101A6000E62FF0E0E295F295F07FFE27E07FFE277B
:101A7000E078F370E80FF11DE65CFB4F677081E0E2
:101A800090E0282F01C0220F6A95EAF7622F80812B
:101A9000862B81934150D9F708954423E9F0E62F2E
:101AA000F0E0E295F295F07FFE27E07FFE27E078F8
:101AB000F370E80FF11DE65CFB4F677081E090E08A
:101AC000282F01C0220F6A95EAF7622F6095808166
:101AD000862381934150D9F70895CF92DF92EF92F8
:101AE000FF920F931F93CF93DF93ACEBB4E04CE3E3
:101AF00055E02CEB35E0CCEBD6E06CE377E08C9155
:101B000084608C931296FA018081806180834E5F9D
:101B10005F4FF9018081806480832E5F3F4F888111
:101B2000816088832296FB018081846080836E5F60
:101B30007F4FF5E0A232BF0711F7E6E4F4E096EC40
:101B4000E92E94E0F92E8D010C5D1F4F66EC75E0D7
:101B500046E456E026EC36E0C6E4D7E086ECC82E34
:101B600087E0D82E8081856580833A96D7018C9155
:101B700085658C938AE090E0E80EF91ED8018C917F
:101B800085658C93065F1F4FDB018C9185658C9377
:101B9000665F7F4FDA018C9185658C93465F5F4F5E
:101BA000D9018C9185658C93265F3F4F888185652F
:101BB00088832A96D6018C9185618C938AE090E087
:101BC000C80ED91E94E0E03AF90761F682E060E0C1
:101BD00044E60E942E0D82E06CE344E60E942E0D46
:101BE00082E060E04DE30E94A80C86E660E04DE3F1
:101BF0000E94A80CDF91CF911F910F91FF90EF9061
:101C0000DF90CF900895CF93DF93982F8823F9F436
:101C100020E030E0862F869586958695C82FD0E007
:101C2000D695DC2FCC27D795C795C20FD31FC65C9E
:101C3000DB4F442379F0A0E0B0E020E030E0462F15
:101C40004770C9F4A8832983DF91CF91089527E6CF
:101C500030E0E0CF992329F521EC31E0F9018491BE
:101C6000A82FB0E02F5F3F4FF9018491282F30E07B
:101C7000462F477039F3CD01042E02C0880F991FFB
:101C80000A94E2F702C0220F331F4A95E2F78883D5
:101C90002983FE01E058FF4F90833183DF91CF917C
:101CA000089523EC31E0DACF0F931F93CF93DF93A6
:101CB000962F969596959695A92FB0E0B695BA2F42
:101CC000AA27B795A795A80FB11DA65CBB4F85E0C5
:101CD000489F8001112407511E4F677071F18FE1F9
:101CE00090E0062E02C0880F991F0A94E2F7782F21
:101CF00070959095ED01C058DF4F40E050E0F8013D
:101D0000E40FF51FE4912E2F30E0062E02C0220FC3
:101D1000331F0A94E2F78C918723822B8D9388815D
:101D20008923832B89934F5F5F4F4530510539F7E6
:101D3000DF91CF911F910F91089520E030E0F801DD
:101D4000E20FF31FE4918C91807EE82BED932F5FDF
:101D50003F4F2530310599F7DF91CF911F910F91BA
:101D600008950F931F93CF93DF938A01962F969533
:101D700096959695A92FB0E0B695BA2FAA27B79554
:101D8000A795A80FB11DA65CBB4F677069F18FEFD7
:101D900090E0982F062E01C0990F0A94EAF7792F48
:101DA0007095ED01C058DF4F40E050E0F801E40FBE
:101DB000F51FE4912E2F30E0062E02C0220F331FB4
:101DC0000A94E2F78C918723822B8D938881892353
:101DD000832B89934F5F5F4F4930510539F7DF916E
:101DE000CF911F910F91089520E030E0F801E20FAC
:101DF000F31FE4918C918078E82BED932F5F3F4F98
:101E00002930310599F7DF91CF911F910F910895F6
:101E100093E0899FA0011124CA018A5F9E4FFC01B3
:101E20003491CA01895F9E4FFC012491485F5E4F47
:101E3000FA014491442321F1822F86958695869557
:101E4000A82FB0E0B695BA2FAA27B795A795A30FEC
:101E5000B11DA65CBB4F27708FEF91E002C0880FC9
:101E6000991F2A95E2F7382FFD01E058FF4F242FE4
:101E70008C9183278D938081892781932150C1F78D
:101E800008950F931F93CF93DF93962F9695969572
:101E90009695A92FB0E0B695BA2FAA27B795A79522
:101EA000A80FB11DA65CBB4F85E0489F800111249F
:101EB00009591E4F677069F18FEF90E0982F062E39
:101EC00001C0990F0A94EAF7792F7095ED01C05877
:101ED000DF4F40E050E0F801E40FF51FE4912E2FB2
:101EE00030E0062E02C0220F331F0A94E2F78C91D5
:101EF0008723822B8D9388818923832B89934F5F3E
:101F00005F4F4530510539F7DF91CF911F910F9108
:101F1000089520E030E0F801E20FF31FE4918C9186
:101F20008078E82BED932F5F3F4F2530310599F7EF
:101F3000DF91CF911F910F910895FF920F931F93FF
:101F4000CF93DF93182FF62EEA01022FFA01449166
:101F5000442351F0812F6F2D0E94410F2196100FC5
:101F6000FE0144914423B1F7DF91CF911F910F916E
:101F7000FF9008957F928F929F92AF92BF92CF92DF
:101F8000DF92EF92FF920F931F93CF93DF93A82ED0
:101F9000762E7A94720E769476947694B62EB694C3
:101FA000B694B694AA94EA2CE40EA3947B14E8F1B8
:101FB000C62FD0E0C295D295D07FDC27C07FDC272A
:101FC000C078D370CA0DD11DC65CDB4F90E8892E56
:101FD000912C841A910880ECC82E8FEFD82EEA1429
:101FE000F0F008EBF02EFB280A2D10E0003408F08A
:101FF00011E080E06F2D412F0E948E031C9D602D0B
:102000001124600F606480E0412F0E948E0381E004
:102010006991412F0E948E030F5FE01630F7B39451
:102020007B1418F0C80DD91DDACFDF91CF911F9125
:102030000F91FF90EF90DF90CF90BF90AF909F9067
:102040008F907F900895DF92EF92FF920F931F93EE
:10205000CF93DF93182F092F80E060EC40E00E94BF
:102060008E038823C9F380E060EC41E00E948E0378
:102070008823C9F380E068EB40E00E948E03882348
:10208000C9F380E060E440E00E948E038823C9F336
:1020900080E068EB41E00E948E038823C9F380E072
:1020A00060E441E00E948E038823C9F3812F902FC2
:1020B0009C017901DD24E70110E081E0688140E0C6
:1020C0000E948E038823C9F321961F5F1034A9F75D
:1020D000E701C05CDF4F870100581F4F81E0688136
:1020E00041E00E948E038823C9F32196C017D107CF
:1020F000A9F77E01D3941D2D186B80E0612F40E07D
:102100000E948E038823C9F380E0612F41E00E9482
:102110008E038823C9F388E0D81669F6DF91CF9142
:102120001F910F91FF90EF90DF9008951F93EAE3C6
:10213000F4E0119288E0EA33F807D9F78AE068E022
:1021400048E950E026E00E949D0F8AE064E14CEAF5
:1021500050E026E00E949D0F8AE060E240EC50E0F3
:1021600026E00E949D0F8AE06DE244ED50E026E0FB
:102170000E949D0F8AE394E00E9423101AE080E6FB
:102180009AEE0E9497061150D1F71F910895089575
:10219000000000000000000000000000000000003F
:1021A000000000000000000000000895629FD001C0
:1021B000739FF001829FE00DF11D649FE00DF11D02
:1021C000929FF00D839FF00D749FF00D659FF00DB1
:1021D0009927729FB00DE11DF91F639FB00DE11D9E
:1021E000F91FBD01CF0111240895991B79E004C0A6
:1021F000991F961708F0961B881F7A95C9F7809546
:10220000089597FB092E07260AD077FD04D02ED01B
:1022100006D000201AF4709561957F4F0895F6F767
:10222000909581959F4F0895A1E21A2EAA1BBB1B82
:10223000FD010DC0AA1FBB1FEE1FFF1FA217B30792
:10224000E407F50720F0A21BB30BE40BF50B661FA8
:10225000771F881F991F1A9469F76095709580956C
:1022600090959B01AC01BD01CF010895AA1BBB1B3A
:1022700051E107C0AA1FBB1FA617B70710F0A61B86
:10228000B70B881F991F5A95A9F780959095BC01A7
:08229000CD010895F894FFCF81
:00000001FF
