:1000000045C054C053C052C051C050C04FC04EC074
:100010004DC04CC04BC04AC049C048C039C146C0A1
:1000200045C044C025C142C041C040C03FC03EC0E1
:100030003DC03CC00001FF000000000000000000C7
:1000400000FF0100EF7D01FE7E04DF7D02FD7E05E5
:10005000BF7D03FB7E067F7D07F77F08E77D60F6A7
:100060007E63D77D61F57E64B77D62F37E65777DC3
:1000700066EFFD81FEFE84DFFD82FDFE85BFFD8310
:10008000FBFE867FFD87F7FF8800000011241FBE5E
:10009000CFEFD2E0DEBFCDBF11E0A0E0B1E001C004
:1000A0001D92AE30B107E1F702D0AAC2A9CF1F93CB
:1000B00052D059D0ABD063D06ED09CD084E690E0C3
:1000C00086D278943FD11FEF10C08091030188231E
:1000D000D9F48091080185FD1CC08091080184FD40
:1000E00023C080910D01882351F58091080186FF7E
:1000F000ECCF809108018F7B809308018FD13FD195
:1001000080910301882329F324D18091080185FF80
:10011000E4CF809108018F7D8093080189E084D02D
:100120008091080184FFDDCF809108018F7E80934C
:1001300008018AE079D080910D018823B1F2803FD7
:1001400019F010920D01D1CF1093070110930B01FC
:1001500010930C01F6CF15BEE1E6F0E080E8808355
:10016000108213BC089585EC85B985E284B98FE4CB
:1001700088B917B883EE8BB980EC8AB9089582E00C
:1001800084BD85BD16BC94E697BD18BC80936E00F7
:1001900087E085BB089580E1809380008AE18093A9
:1001A0008100109282001092850010928400E8E88D
:1001B000F0E083EF91E0918380839183808390933B
:1001C00087008093860010926F0087E286BB0895B7
:1001D0001092B00081E08093B1001092B2001092B2
:1001E000B3001092B4001092700087E087BB1092A9
:1001F000B600089587E680937C0085E980937A00B5
:1002000010927B0080E380937E0008951092C000DE
:1002100088E98093C10086E08093C2001092C500F7
:100220008CE08093C4000895982F8091C00085FFD2
:10023000FCCF9093C60008958091C00087FFFCCF4B
:100240008091C60008958091C000881F8827881F6C
:100250000895FC019081992351F08091C00085FFA1
:10026000FCCF9093C600319690819923B1F7089501
:100270001F920F920FB60F9211248F938091C60098
:1002800080930D018F910F900FBE0F901F901895C6
:100290001F920F920FB60F9211248F938091080135
:1002A0008064809308018F910F900FBE0F901F9074
:1002B0001895F999FECF81BD92BDF89A80B5089541
:1002C000F999FECF81BD92BD60BDF894FA9AF99A72
:1002D0007894089590917C00907F90937C00909109
:1002E0007C00982B90937C0082E390E070D1809109
:1002F0007A00806480937A0080917A0084FFFCCF3A
:1003000080917A00806180937A00809179000895CD
:10031000AB01FB01259134912115310549F410C041
:100320004D5F5F4FFA01259134912115310541F060
:1003300028173907A9F74E5F5F4FFA018491089596
:1003400080E00895109203011092080110920D01AF
:10035000089580910301882339F0883831F0863878
:1003600039F062DF10920301089528982898FDCF94
:1003700085B190E2892785B910920301089586E03E
:10038000A9DF813C08F444C090E0809107019817F0
:1003900041F090930701892F806446DF80E197E266
:1003A00016D184E097DF813C70F192E080910B01DF
:1003B000981771F090930B0183E0989F802D112482
:1003C00090910C01890F80652FDF80E197E2FFD0CB
:1003D00085E080DF813C90F032E080910C0138179D
:1003E00061F030930C0180910B0123E0829FC001EA
:1003F0001124380F832F806517DF089530E0803493
:1004000060F331E0EACF90E0803480F291E0CECF2B
:10041000803410F492E0B9CF91E0B7CF8FEF9FE72F
:1004200090930101809300018BB18F7380648BB92D
:100430008AE090E0CCD086B18F708F3099F0209117
:1004400000013091010190E082959295907F98276C
:10045000807F98278F609D6782239323909301016B
:10046000809300018BB18F7380688BB98AE090E034
:10047000AED086B18F708F3069F02091000130913D
:100480000101806F90E09E67822393239093010186
:10049000809300014D9909C0809100019091010164
:1004A000877F9093010180930001809100019091DA
:1004B00001018F5F9F4759F0409100015091010168
:1004C00080910401909105014817590789F18091A5
:1004D0000001909101019093050180930401109215
:1004E0000901109206018AE08093020193B1809184
:1004F0000A01880F880F80930A0180910A01929562
:10050000969596959370982B90930A01E0910A0125
:10051000F0E0EF70F070EC5CFF4F84918130A9F156
:100520008F3F29F48091080180628093080108952B
:10053000809109018F5F80930901853660F18F3FBB
:10054000A9F684E680930901809106018F5F80936C
:10055000060190910201891749F624E430E0F9017F
:1005600085919491009779F050684817590721F4C4
:1005700027C04817590721F12D5F3F4FF901859199
:1005800094910097B1F780E01FC0809108018061CD
:10059000809308010895843609F0A8CF24E430E060
:1005A000F90185919491009741F4EDCF2D5F3F4F74
:1005B000F90185919491009731F348175907B1F7E4
:1005C0002E5F3F4FF9018491809303018FCFDF931A
:1005D000CF9300D0CDB7DEB79A83898389819A8182
:1005E000892B49F089819A8101979A83898389812E
:1005F0009A81892BB9F70F900F90CF91DF910895D1
:04060000F894FFCF9C
:00000001FF
